:020000040800F2
:1000000088080020890100080F1D00086D1A0008EB
:100010000D1D00088F02000879250008000000006F
:100020000000000000000000000000004D1F00085C
:10003000C702000800000000E91E0008751F000844
:10004000A3010008A3010008A3010008A301000800
:10005000A3010008A3010008A3010008A3010008F0
:10006000C9020008A3010008A3010008A3010008B9
:10007000A3010008A3010008A301000891020008E1
:10008000A3010008A3010008A3010008A3010008C0
:10009000A3010008A3010008A3010008A3010008B0
:1000A000A3010008A3010008A3010008A3010008A0
:1000B000D91F0008A3010008A3010008A30100083C
:1000C000A3010008A3010008A3010008A301000880
:1000D000A30100086D250008A3010008A301000882
:1000E000A3010008A3010008A301000800F002F822
:1000F00000F03AF80AA090E8000C82448344AAF188
:100100000107DA4501D100F02FF8AFF2090EBAE885
:100110000F0013F0010F18BFFB1A43F0010318473B
:100120000435000024350000103A24BF78C878C197
:10013000FAD8520724BF30C830C144BF04680C60ED
:10014000704700000023002400250026103A28BF35
:1001500078C1FBD8520728BF30C148BF0B60704739
:100160001FB51FBD10B510BD00F058F81146FFF7C0
:10017000F7FF02F08BFA00F076F803B4FFF7F2FF16
:1001800003BC00F07DF8000009488047094800479B
:10019000FEE7FEE7FEE7FEE7FEE7FEE7FEE7FEE737
:1001A000FEE7FEE704480549054A064B7047000094
:1001B000D71F0008ED0000088802002088080020F2
:1001C00088040020880400204FF0000200B5134688
:1001D00094469646203922BFA0E80C50A0E80C5067
:1001E000B1F12001BFF4F7AF090728BFA0E80C5018
:1001F00048BF0CC05DF804EB890028BF40F8042B11
:1002000008BF704748BF20F8022B11F0804F18BF7D
:1002100000F8012B7047704770477047754600F033
:100220002BF8AE4605006946534620F00700854688
:1002300018B020B5FFF7B6FFBDE820404FF000062C
:100240004FF000074FF000084FF0000B21F00701BE
:10025000AC46ACE8C009ACE8C009ACE8C009ACE801
:10026000C0098D46704710B50446AFF300802046A4
:10027000BDE81040FFF781BF00487047240200200E
:1002800001491820ABBEFEE7260002007047FEE7DA
:10029000014800F08DB80000E001002030B590F872
:1002A00040500124AC40C56B6C60046863604368D7
:1002B000102B036803D099600068C26030BD9A605B
:1002C0000068C16030BD7047042000F093B972B679
:1002D000FEE710B590F821100022022905D0042174
:1002E000816380F82020012010BD01680B6823F095
:1002F0000E030B6001680B6823F001030B6090F89C
:100300004030C46B012101FA03F3636080F82110CF
:1003100080F82020104610BD10B590F82110002460
:10032000022903D00421816301243DE001680A68A9
:1003300022F00E020A6001680A6822F001020A60D7
:100340001A4A0168914201D1012121E0174A143271
:10035000914201D110211BE0144A2832914201D16F
:10036000891515E0114A3C32914201D189140FE000
:100370000E4A5032914202D14FF4803108E00B4ACC
:100380006432914202D14FF4801101E04FF080714C
:10039000064A083A5160012180F82110002180F8B6
:1003A0002010416B01B18847204610BD0800024073
:1003B0002DE9F05FC16B0C6801680B68D0F840C094
:1003C000042202FA0CF2494DDFF824A1494E4A4FAB
:1003D000DFF828B1DFF828E122422CD05A072AD5CD
:1003E0000A68920603D40A6822F004020A600168CF
:1003F000A94201D1042219E0514501D1402215E062
:10040000B14202D14FF4806210E0B94202D14FF400
:1004100080420BE0594502D14FF4802206E071453D
:1004200002D14FF4800201E04FF080622F49083979
:100430004A60C16A3BE04FF0020808FA0CF818EA7B
:10044000040F4FF000094FF0010235D05FEA8378C6
:1004500032D50B689B0605D40B6823F00A030B60AA
:1004600080F821200168A94201D1022219E05145FA
:1004700001D1202215E0B14202D14FF4007210E008
:10048000B94202D14FF400520BE0594502D14FF46A
:10049000003206E0714502D14FF4001201E04FF046
:1004A0000072124908394A6080F82090816A002958
:1004B0001AD0BDE8F05F0847082505FA0CF525427B
:1004C00012D01B0710D50B6823F00E030B6090F8B9
:1004D0004010C36B02FA01F15960826380F8212059
:1004E00080F82090016BE2E7BDE8F09F0800024031
:1004F0001C0002403000024044000240580002400C
:100500006C00024030B528B308C8134914221944BE
:10051000B1FBF2F18900C163104981630221417787
:100520001A6843F6F0718A43D0E900142143D0E9F8
:1005300002452C43214304692143446921438469D2
:100540002143114319600021416301224277017761
:10055000084630BD012030BDF8FFFDBF000002405D
:1005600070B5044690F82000002501280CD0012029
:1005700084F8200094F821600020012E06D084F831
:1005800020000225284670BD022070BD022684F896
:100590002160A0632068066826F0010606602046F8
:1005A000FFF77CFEE06A00282068016802D041F075
:1005B0000E0106E021F0040101602068016841F0AD
:1005C0000A0101602068016841F001010160D9E77A
:1005D00004280AD10548017A002906D000210172B9
:1005E0000A460221024800F001B9704700000020CD
:1005F00000080140044910B50A68024202D00860B0
:10060000FFF7E6FF10BD0000140401402DE9F84F8C
:10061000DFF8B891002409F1040A0AF1040B23461B
:100620000F270BF1040EC9E00125A5402A40AA427C
:100630007DD1674ED1F804C0ACEB0608B44532D08A
:1006400014DCBCF1030F3AD009DCBCF1000F2AD056
:10065000BCF1010F1CD0BCF1020F31D11DE0BCF187
:10066000110F17D0BCF1120F2AD119E0B8F5881F6D
:1006700019D006DCB8F5803F15D0B8F5801F1FD122
:1006800011E0B8F5001F0ED0B8F5041F18D10AE02C
:10069000CB6815E0CB681B1D12E0CB6808330FE078
:1006A000CB680C330CE08B682BB1012B4FF00803A7
:1006B00003D0456104E0042302E0056100E000236B
:1006C000FF2A01D8064601E000F104064FEA84053E
:1006D00001D9A5F12005D6F8008007FA05FC28EA23
:1006E0000C0803FA05F548EA0508C6F800804D68CD
:1006F000ED0062D5374DAE6946F00106AE61AD69D9
:1007000024F0030605F001050095334D06EB050CBA
:10071000DCF80850A607360F07FA06F825EA0805A0
:10072000DFF8B880404503D14FF0000817E044E0FF
:10073000DFF8AC80404502D14FF001080FE0DFF850
:10074000A480404502D14FF0020808E0DFF898800D
:10075000404502D14FF0030801E04FF0040808FAC9
:1007600006F848EA0508CCF808804D68D9F800601A
:10077000ED034D4601D5164300E096432E604D68CB
:10078000DAF80060AD03554601D5164300E0964304
:100790002E604D68DBF80060ED025D4601D5164322
:1007A00000E096432E604D68DEF80060AD027546AD
:1007B00001D5164300E096432E60641C0D682A465E
:1007C000E5407FF431AFBDE8F88F00000004014040
:1007D000000011100010024000000140000801401C
:1007E000000C014000100140001401400AB10161F9
:1007F00070470904FBE7000001488068704700006B
:10080000900000200248816802781144816070479E
:1008100090000020074810B5016841F01001016008
:10082000032000F075F80F2000F006F800F024F81F
:10083000002010BD0020024070B50D4D04464FF45D
:100840007A712878B1FBF0F00A490968B1FBF0F041
:1008500000F0ECFA48B9102C07D200222146501EB5
:1008600000F036F800206C6070BD012070BD000003
:10087000900000209C0000200C4808B5816941F0E0
:1008800001018161816901F001010091C16941F0BB
:100890008051C161C06900F08050009004484168F7
:1008A00021F0E06141F00071416008BD001002409C
:1008B00000000140002809DB00F01F0201219140E7
:1008C0004009800000F1E020C0F8001170470000EE
:1008D000F0B40E4B1B680C46C3F30223C3F10705AB
:1008E000042D00D90425191D072901D2002300E099
:1008F000DB1E012606FA05F1491E214099409E4063
:10090000761E16403143F0BC01F042BE0CED00E013
:10091000064900F0070208684FF6FF03184040EA56
:100920000220034A10430860704700000CED00E00D
:100930000000FA052DE9F0470F46050061D0434E4F
:10094000306800F00700B84209D2306820F0070094
:1009500038433060306800F00700B84251D1286851
:100960003B4C810712D5400703D5606840F4E06036
:1009700060602878000703D5606840F460506060CC
:100980006068A96820F0F000084360602878C0071C
:1009900028D06868012810D02168022810D0890763
:1009A00000292EDA616821F0030101436160FFF73D
:1009B00023FF804641F288390DE021688903EFE783
:1009C0008901EDE7FFF718FFA0EB0801494502D9BF
:1009D0000320BDE8F0876068696800F00C00B0EBA8
:1009E000810FEFD1306800F00700B8420BD93068B2
:1009F00020F0070038433060306800F00700B8424C
:100A000001D00120E5E72878400705D56068E9684E
:100A100020F4E060084360602878000706D560682D
:100A2000296920F4605040EAC100606000F038F8A5
:100A30006168084AC1F30311515CC8400649086067
:100A400006480068FFF7F8FE0020C2E700200240D9
:100A5000001002400C3600089C000020940000208A
:100A60000448054900684968044AC1F30221515C01
:100A7000C84070479C000020001002401C3600084F
:100A80000448054900684968044AC1F3C221515C21
:100A9000C84070479C000020001002401C3600082F
:100AA00012A185B00FC98DE80F0014A0144A006888
:100AB00004905168134801F00C03042B10D0082B4C
:100AC0000ED1C1F38343C9031DF803000AD5516851
:100AD00004AAC1F34041515C0A4A5043B0FBF1F013
:100AE00005B0704708494843FAE7000002030405CF
:100AF000060708090A0B0C0D0E0F1010010200006A
:100B00000010024000127A0000093D002DE9F84F64
:100B1000040070D02078C04DC00749D06868C0F389
:100B20008100012807D06868C0F38100022809D13C
:100B30006868C00306D52868800339D56068002836
:100B4000E7D035E06068B0F5803F0BD010B1B0F56C
:100B5000A02F11D0286820F480302860286820F465
:100B6000802002E0286840F480302860606890B1FE
:100B7000FFF742FE06460AE0286840F4802028601D
:100B8000F0E700BFFFF738FE801B642873D82868A1
:100B90008003F7D50CE0FFF72FFE064605E000BF07
:100BA000FFF72AFE801B6428F0D828688003F7D45A
:100BB00020789A4E80074FF001094FF0000839D590
:100BC000686810F00C0F07D06868C0F38100022835
:100BD00009D16868C00306D42868800714D5206945
:100BE000012808D110E02069B0B1C6F80090FFF7E5
:100BF00003FE074605E00AE1FFF7FEFDC01B0228E1
:100C0000C4D828688007F7D52868616920F0F80003
:100C100040EAC10028600DE0C6F80080FFF7ECFD57
:100C2000074604E0FFF7E8FDC01B022823D8286828
:100C30008007F7D4207800072CD57948A169D9B16D
:100C4000C0F80090FFF7D8FD074604E0FFF7D4FD99
:100C5000C01B02280FD8686A8007F7D571484FF487
:100C6000FA510068B0FBF1F0009000BF0098411EFF
:100C70000091FAD20EE080E0C0F80080FFF7BCFDE2
:100C8000074604E0FFF7B8FDC01B022875D8686A64
:100C90008007F7D42078400760D5E8690027C000B6
:100CA00008D4E86940F08050E861E869012700F065
:100CB000805000905C480168C90513D401688346E0
:100CC00041F480710160FFF797FD824606E000BFA6
:100CD000FFF792FDA0EB0A0064284ED8DBF8000075
:100CE000C005F5D5E06801280AD008B1052813D061
:100CF000286A20F001002862286A20F0040002E03F
:100D0000286A40F001002862E06841F2883B98B10F
:100D1000FFF772FD82460BE0286A40F0040028626B
:100D2000EEE700BFFFF768FDA0EB0A0159455AD86E
:100D3000286A8007F6D50CE0FFF75EFD824605E0E5
:100D4000FFF75AFDA0EB0A0159454CD8286A8007E5
:100D5000F6D41FB1E86920F08050E861E06988B3FB
:100D60006968C1F38101022944D00228C6F8608075
:100D700004D0FFF741FD044638E034E0FFF73CFDC6
:100D8000074604E0FFF738FDC01B02282BD828686F
:100D90008001F7D4206AB0F5803F05D16868A1686A
:100DA00020F4003008436860D4E90801084369680A
:100DB00021F4741108436860C6F86090FFF71CFDC9
:100DC000044606E025E000BFFFF716FD001B0228E1
:100DD00009D828688001F7D51BE000BFFFF70CFD9C
:100DE000001B022802D90320BDE8F88F2868800183
:100DF000F4D40EE00128F7D06868226A00F480314C
:100E0000914204D1616A00F47010884201D001203F
:100E1000EAE70020E8E7000000100240000042423C
:100E2000800442429C0000200070004010B5401E2B
:100E3000B0F1807F01D3012010BD4FF0E02460614C
:100E40000F21601701F0A4FB0020A06107202061A2
:100E5000002010BD7047704770B590F83C20012A03
:100E600026D0012480F83C40022280F83D2003680F
:100E70005A689D6822F070060A6832435A600D4B2A
:100E800002689A4208D0B2F1804F05D00A4B9A42CC
:100E900002D00A4B9A4204D1496825F080031943D5
:100EA000916080F83D40002180F83C10084670BDFC
:100EB000022070BD002C01400004004000080040EA
:100EC00010B5040003D094F83D0010B107E00120F4
:100ED00010BD002084F83C00204600F01FF80220DE
:100EE00084F83D00211D206801F07CF8012084F881
:100EF000460084F83E0084F83F0084F8400084F8FF
:100F0000410084F8420084F8430084F8440084F8E7
:100F1000450084F83D00002010BD000008B50068C1
:100F2000B0F1804F12D10A48C16941F00101C1619D
:100F3000C069002200F00100009002211C20FFF790
:100F4000C7FCBDE808401C20FFF7B4BC08BD00008A
:100F50000010024090F83D10012901D00120704797
:100F6000022180F83D100168CA6842F00102CA609F
:100F700000680B49884208D0B0F1804F05D009497C
:100F8000884202D00849884204D1816801F00701F3
:100F9000062903D0016841F001010160002070477B
:100FA000002C0140000400400008004070B50446D9
:100FB00090F83C00012817D0012584F83C5002200D
:100FC00084F83D002068826822F0770222F47F4294
:100FD00082600868502830D00DDC20284DD005DC18
:100FE00098B310283BD148E0022070BD302844D08F
:100FF000402834D139E0602828D0702806D0B0F5D8
:10100000805F2CD0B0F5005F29D10AE0CB68D1E930
:101010000121206801F029F82068816841F07701FA
:1010200009E0CB68D1E90121206801F01EF82068B1
:10103000816841F48041816011E0CA684968206894
:1010400001F0C8F85021206807E016E0CA68496836
:10105000206801F0D0F86021206801F010F884F8D1
:101060003D50002084F83C0070BDCA684968206883
:1010700001F0B0F840212068EFE7226801461046F1
:10108000EBE72DE9F0410D46040003D094F83D0054
:1010900018B108E00120BDE8F081002084F83C0090
:1010A000204600F041F8022084F83D002068816865
:1010B00044F2070291438160211D206800F092FFF5
:1010C000226890689169166A2B68AF69034340F201
:1010D0000330814341EA0721A868EF6908434FF6CE
:1010E000FC418843E96840EA0720014328692F6AE8
:1010F000000140EA0730084369686D6926F022065E
:1011000046EA0515294393602268906154F8460B1E
:101110000162012004F81F09E0752076E07620774F
:10112000A0750020B7E7000000B585B00021009150
:1011300001910291039100680D49884216D10D4832
:10114000C16941F00401C161C16901F00401049168
:10115000816941F0080181618069694600F00800F9
:101160000490C02000900448FFF750FA05B000BD7D
:101170000008004000100240000C014070B590F8DB
:101180003E60044690F83F5090F8423090F843207B
:10119000022021B104290ED0012E1BD114E0012E12
:1011A00018D1012B16D184F83E0084F842000122A8
:1011B0000021206820E0012D0CD1012A0AD184F8F9
:1011C0003F0084F8430014E0012D03D1012B01D12D
:1011D000012A01D0012070BD84F83E0084F83F0050
:1011E00084F8420084F8430001220021206800F0C6
:1011F0002FFF01220421206800F02AFF20680168E7
:1012000041F001010160002070BD704770B50446D7
:10121000006801694FF00005C943890715D4C1680A
:10122000C943890711D4E91E016101202077206894
:1012300080698007204602D0FFF7E7FF04E000F056
:10124000BFF8204600F062F9257720680169C9439C
:10125000490717D4C168C943490713D46FF0040183
:101260000161022020772068806910F4407F2046C9
:1012700002D0FFF7CAFF04E000F0A2F8204600F019
:1012800045F9257720680169C943090716D4C16863
:10129000C943090712D46FF00801016104202077C7
:1012A0002068C0698007204602D0FFF7AEFF04E047
:1012B00000F086F8204600F029F9257720680169BA
:1012C000C943C90617D4C168C943C90613D46FF00E
:1012D00010010161082020772068C06910F4407F68
:1012E000204602D0FFF791FF04E000F069F82046A5
:1012F00000F00CF9257720680169C943C90708D1B6
:10130000C168C943C90704D1891E0161204600F0A4
:101310004DF920680169C943090609D4C168C94368
:10132000090605D46FF0800101612046FFF792FDA8
:1013300020680169C943490609D4C168C9434906FF
:1013400005D46FF040010161204600F07BF9206870
:101350000169C94389060BD4C168C943890607D40A
:101360006FF0200101612046BDE87040FFF773BDBA
:1013700070BD000000B585B000210091019102917F
:10138000039100680B49884211D10B48816941F0F3
:10139000040181618069694600F0040004904020E6
:1013A00000900220019003900448FFF72FF905B048
:1013B00000BD000000040040001002400008014091
:1013C000704770B5044690F83C000D4601280AD0DD
:1013D000012084F83C0042B1042A18D0082A2AD0FF
:1013E0000C2A4DD139E0022070BD206800F050FE7B
:1013F0002068816941F0080181612068816921F0DC
:1014000004018161206881692A69114311E0206823
:1014100000F066FE2068816941F400618161206806
:10142000816921F480618161206881692A6941EACA
:101430000221816124E0206800F07EFE2068C169FD
:1014400041F00801C1612068C16921F00401C16156
:101450002068C1692A69114311E0206800F098FEF4
:101460002068C16941F40061C1612068C16921F44B
:101470008061C1612068C1692A6941EA0221C161B4
:10148000002084F83C0070BD10B5040003D094F82F
:101490003D0010B107E0012010BD002084F83C00A1
:1014A000204600F01FF8022084F83D00211D20682E
:1014B00000F098FD012084F8460084F83E0084F88E
:1014C0003F0084F8400084F8410084F8420084F82A
:1014D000430084F8440084F8450084F83D0000206F
:1014E00010BD000008B500680649884208D10648CA
:1014F000C16941F00201C161C06900F002000090C1
:1015000008BD0000000400400010024070470000C9
:1015100010B50446022249B104290ED0082913D07F
:1015200094F84100012816D0012010BD94F83E0027
:101530000128F9D184F83E200FE094F83F000128FB
:10154000F2D184F83F2008E094F840000128EBD164
:1015500084F8402001E084F841200122206800F056
:1015600077FD0F492068884203D1426C42F4004263
:1015700042642068884208D0B0F1804F05D0094904
:10158000884202D00849884204D1816801F00701ED
:10159000062903D0016841F001010160002010BD5F
:1015A000002C0140000400400008004070B51B49B9
:1015B00000680968884230D1194CA07900282CD0E5
:1015C000184D2868406A2061B0F57A4F03DD4FF668
:1015D000FF71081A2061C0EB0010800001F0E1FBF0
:1015E000114A124B01F028FA0022114B01F024FAA3
:1015F000104A114BC4E9120101F026FC00220F4BE6
:1016000001F022FC00220E4B01F016FAC4E914018D
:1016100000F07EFB29680020486270BDC4000020F5
:1016200000000020540100209A9999999999A93FA6
:1016300000C0A2406E861BF0F921094000000C405A
:1016400000004E407047704770470000F8B50268D0
:1016500004461068D168536910F00F0F4FF0000571
:1016600053D003F0010601F4907737435FD0C207EF
:1016700005D0CA0503D5226C42F00102226442075C
:1016800005D5DA0703D0226C42F0020222648207F9
:1016900005D5DA0703D0226C42F004022264020767
:1016A00007D501F02002324303D0226C42F0080239
:1016B0002264226C002A34D0800604D5880602D524
:1016C000204600F032FE20684069216CC0F3801093
:1016D000090700D430B3204600F006FE20684169B7
:1016E00049061BD5416921F040014161A06BA8B1B9
:1016F00058494163A06BFEF70FFE002811D0A06B84
:10170000416B01B0BDE8F040084783060FD58B065A
:101710000DD52046BDE8F84000F007BE2046FFF793
:1017200093FFF8BD2046FFF78FFF2564F8BD266BB9
:101730002023012E52D1C60650D5CE064ED51068B4
:1017400050680090506940062AD5A16B086840682F
:101750000004000CEAD0A68D8642E7D9E0858869AE
:10176000202818D0D06820F48070D06020684169AB
:1017700021F0010141612068416921F0400141618E
:1017800084F83E3025632068C16821F01001C160F3
:10179000A06BFEF79EFDA08DE18D401A81B219E08D
:1017A000A08DE18D401A81B2E08D0028BED00029C5
:1017B000BCD0D06820F49070D0602068426922F0DC
:1017C0000102426184F83E3025632068C26822F03D
:1017D0001002C2602046FFF736FFF8BD05062BD584
:1017E0000D0629D594F83D002128F6D1A068B0F562
:1017F000805F01D12069B0B1206A411C216221685B
:1018000000784860E08C401E0004000CE084E4D1C5
:101810002068C16821F08001C1602068C16841F082
:101820004001C160F8BD206A0088C0F30800506024
:10183000206A801C2062E5E74006F3D54806F1D512
:10184000D168204621F04001D16084F83D3000F09D
:101850000CF9F8BD1B22000870B5040004D094F800
:101860003D00002510B106E0012070BD84F83C5019
:10187000204600F023F8242084F83D002068C16849
:1018800021F40051C160204600F0AAFD20680169E2
:1018900021F4904101612068416921F02A014161F0
:1018A0002068C16841F40051C1602564202084F89B
:1018B0003D0084F83E00002070BD000070B586B089
:1018C000002506460095019502950395006822497A
:1018D00088423FD12149886940F480408861886905
:1018E00000F480400490886940F0040088618869B1
:1018F0001B4C00F004000490481500900220019059
:101900000320039069462046FEF780FE2015CDE9AE
:101910000005694620460295FEF778FE124C1148F4
:10192000C4E900058020C4E9025020202561C4E9F3
:1019300005502046E561FEF7E5FD08B1FEF7C7FC5E
:10194000B4630022114625206662FEF7C1FF252000
:10195000FEF7B0FF06B070BD003801400010024035
:101960000008014058000240E001002090F83E309D
:10197000202B0ED159B152B190F83C30012B08D038
:10198000012380F83C300023036300F085BD012073
:1019900070470220704700000449006809688842C7
:1019A00002D103490120C871704700009C0100204A
:1019B00000000020704700002DE9F843044690F82D
:1019C0003D001F4616460D4620284CD1C5B1BEB17C
:1019D00094F83C00012846D0012084F83C004FF0E8
:1019E0000008C4F84080212084F83D00FEF704FF81
:1019F000A6848146E684A068B0F5805F03D004E049
:101A00000120BDE8F883206928B12E465FF000056B
:101A100084F83C800EE00026FAE78021204600F0A2
:101A200073FDA0B9AEB116F8010B21684860E08CD7
:101A3000401EE084E08C4B464FF0000200970028E7
:101A4000EBD14FF04001204600F05EFD30B10320A5
:101A5000D7E735F8020BC0F30800E6E7202084F84A
:101A60003D000020CDE70220CBE77047FEE70000F5
:101A7000094808B5416941F001014161406900220E
:101A800000F00100009005210F20FEF721FFBDE8C6
:101A900008400F20FEF70EBF001002402DE9F0476E
:101AA00086B000243548009401940294039481691F
:101AB00041F010018161816901F010010491816997
:101AC00041F020018161816901F020010491816967
:101AD00041F004018161816901F00401049181698F
:101AE00041F0080181618069DFF8948000F008000E
:101AF0004FF400570490002239464046FEF776FE28
:101B0000DFF8809000220A214846FEF76FFEDFF8DA
:101B100078A0002239465046FEF768FE02260125CD
:101B200000970396CDE9015469464046FEF76EFDE5
:101B30000A20CDE90005CDE9024669464846FEF790
:101B400065FD042000901148CDE90105694648462D
:101B5000FEF75CFD00970396CDE9015469465046B7
:101B6000FEF754FD002211460820FEF7B1FE0820C2
:101B7000FEF7A0FE06B0BDE8F087000000100240AE
:101B80000010014000080140000C0140000011104D
:101B900010B586B000241748009401940294039471
:101BA00004944FF080410594016040F22B11C0E98C
:101BB000011442F6DF61C0E903148461FFF780F984
:101BC00008B1FEF784FB4FF4805000906946094845
:101BD000FFF7ECF908B1FEF77AFB049404A9054875
:101BE0000594FFF739F9002801D0FEF770FB06B025
:101BF00010BD0000C400002010B58AB00024079476
:101C00001C2168460894FEF7DFFA16481449016063
:101C10000921C0E9011441F61F41C0E903148461A0
:101C2000FFF732FC08B1FEF752FB079407A90D48F5
:101C30000894FFF711F908B1FEF749FB6020CDE9E0
:101C4000000402940022694606480494FFF7B9FB99
:101C500008B1FEF73CFB0348FFF78CFB0AB010BD50
:101C6000000400400C01002010B58CB0242168460F
:101C7000FEF7AAFA00241648099414490A94C0E908
:101C800000144FF6FF71C0E9024104618461032032
:101C9000CDE900040120CDE902040494CDE905401A
:101CA000079469460A480894FFF7EBF908B1FEF774
:101CB0000EFB099409A906480A94FFF7CDF80028FD
:101CC00001D0FEF704FB0CB010BD0000000800407E
:101CD000540100200C4810B50A4901604FF4E1316D
:101CE0004160002181600C22C160C0E90412816161
:101CF000C161FFF7B1FD002803D0BDE81040FEF739
:101D0000E6BA10BD003801409C010020FEE7FEE766
:101D10002DE9F04F6C4C93B0D4E91E2301F0C8F9C3
:101D200004F180050746C5E900018846D4E91A0197
:101D3000CDE90F10012201F0FDFB07910D91DFF8B5
:101D40008CA1D4E9182306464FF020494846514655
:101D500001F07AF84A46534601F076F8CDE90401DD
:101D60008B460C9001215A4801F012FC129001F0B0
:101D700095FA0391D4E91623824601F065F881466D
:101D800001915B460C9A00F09BFD32460D9B00F0E2
:101D900097FD00F063FD20620B90DDE90F10022239
:101DA000DDF804B001F0C6FB02460B46DDE9040194
:101DB00001F08AF94A465B4601F086F900F04EFDD3
:101DC00060620D903046079900F048FD8346A0629E
:101DD0001298E0625646DDF80C90616B01F0ACFAA7
:101DE00001F05CFA049007915846E16901F0A4FA09
:101DF00001F054FA05910A90A1690C910D9801F037
:101E00009BFA01F04BFA82468B460B9801F046FA9A
:101E100043463A4601F018F852465B4600F050FD42
:101E2000059B0A9A00F04CFD079B049A00F048FDC0
:101E300032464B4600F000FE00F010FD20630646DF
:101E400060630C98E0614146384600F007FDA061F0
:101E5000304601F055FAB0F5E15F06DB1D49002080
:101E6000C5E902011C48206322E0DFF87080DFF83A
:101E700070904FF4005716F1FF4F02D386F00040E8
:101E800008E010F5E15F04DC12490020C5E9020119
:101E90000EE0304601F002FAC5E90201002239469F
:101EA0004046FEF7A3FC012239464846FEF79EFC59
:101EB000D5E9020100F018FF0A496061096848632A
:101EC00013B0BDE8F08F0000000000209999A93FF1
:101ED000CDCC4C3D001FBC4000F8E045000C01405B
:101EE000001001400C0100207047000010B50446AE
:101EF0000078302826D1A07A312823D100231A4631
:101F00001149204600F0A0FC0F4901231A46891C04
:101F1000204600F099FC0C49032302220931204697
:101F200000F092FC0849092304223D31204600F0CC
:101F30008BFC0A2304492046BDE810401A46491C80
:101F400000F082BC10BD00000000002070470000BF
:101F50000749A1F13800C2780A7042794A70B0F896
:101F60000B204A80007908710521014800F006BB6A
:101F700038000020FEF746BC30B58FB028216846F7
:101F8000FEF722F914210AA8FEF71EF90121080420
:101F9000CDE900100024029402250491CDE90750F8
:101FA0004FF4E01009906846FEF7B0FD08B172B634
:101FB000FEE70F20CDE90A054FF48060CDE90C4023
:101FC00002210AA80E94FEF7B5FC002801D072B6D3
:101FD000FEE70FB030BD70470148FFF717B90000AA
:101FE000C4000020F0B50268164B174C174D4FF097
:101FF0008047984205D0B84203D0A04201D0A84201
:1020000003D122F070064A683243984205D0B842A4
:1020100003D0A04201D0A84203D122F44074CA6880
:1020200022434C6922F08002224302608A68C26225
:102030000A688262984201D1096901630121416104
:10204000F0BD0000002C01400004004000080040EA
:1020500010B501F01F030121046A99408C4304620A
:10206000016A9A401143016210BD10B5846842EACA
:10207000032224F47F440A432243826010BD826815
:1020800022F070020A4342F00701816070470000AD
:1020900030B5026A22F001020262026A4368846972
:1020A00024F073050C682C4322F002058A682A4349
:1020B0000A4DA8420BD122F00805CA6823F44073E8
:1020C0002A434D6922F004021D438B692B43436070
:1020D000846149684163026230BD0000002C014008
:1020E00030B5026A22F010020262026A4368846913
:1020F0000D6824F4E64444EA05248D6822F02002A9
:1021000042EA05120B4DA8420ED1CD6822F08002A2
:1021100042EA05124D6923F4406343EA85038D6961
:1021200022F0400243EA8503436084614968816389
:10213000026230BD002C014030B5026A22F4807288
:102140000262036A4268C46923F4007324F07305D1
:102150000C682C438D6843EA05230C4DA8420ED130
:10216000CD6823F4006343EA05234D6922F440520D
:1021700042EA05128D6923F4806342EA0512426047
:10218000C4614968C163036230BD0000002C014096
:1021900030B5026A22F480520262046A4268C3695E
:1021A0000D6823F4E64343EA05238D6824F40054C4
:1021B00044EA0534064DA84204D14D6922F4804218
:1021C00042EA85124260C36149680164046230BD1D
:1021D000002C014010B5036A046A24F00104046273
:1021E000846924F0F00444EA021423F00A020A434A
:1021F0008461026210BD10B5036A23F0100303620C
:102200008369046A23F4704343EA023224F0A00392
:1022100043EA01118261016210BD10B5406A0021DC
:10222000C185C184FFF710FA10BD70B5446A2068FB
:10223000406994F83D10C0F3C0100025212904D155
:1022400018B1E584204600F067F82068406994F8EA
:102250003E10C0F38010222904D118B1E585204634
:1022600000F042F8206C40F0100020642046FFF798
:10227000EBF970BD10B50146406A09680968890626
:102280001BD40021C1850168CA6822F48072CA602B
:1022900001684A6922F001024A6101684A6922F034
:1022A00040024A61202180F83E10016B012904D1CF
:1022B0000168CA6822F01002CA60016B012902D0CD
:1022C000FFF76AFB10BD818DFFF7BDF910BD10B59A
:1022D000406A016B012902D0FFF76CFB10BD818DB4
:1022E0004908FFF7B0F910BD0168CA6822F490727E
:1022F000CA6001684A6922F001024A61016B012942
:1023000004D10168CA6822F01002CA60202180F856
:102310003E100021016370470168CA6822F0C002C4
:10232000CA60202180F83D10704708B590F83E1033
:10233000222901D0022008BD82684FF480539A42BE
:1023400001D1016921B1816A9A421BD04AB10AE0E8
:102350000268816A5268C2F308020A80816A891C95
:1023600008E0026972B10268526802F07F020A70E6
:10237000816A491C8162C18D491E0904090CC1850D
:1023800003D019E002685268F1E70168CA6822F0D8
:102390002002CA600168CA6822F48072CA600168BB
:1023A0004A6922F001024A61202180F83E10016B47
:1023B000012903D0FFF7F0FA002008BD00210163D6
:1023C0000168CA6822F01002CA6001680A68D20671
:1023D00002D50A6849680091818DFFF734F9EBE76F
:1023E00070B5044600680169E26821F44051114368
:1023F00001612169A0680843616908432168CA68CE
:1024000041F20C639A430243CA6020684169A269A1
:1024100021F44071114341611E492068884202D174
:10242000FEF72EFB01E0FEF71BFB00EBC00101EB0A
:102430000012606864218000B2FBF0F3B3FBF1F39B
:102440006FF018067343B2FBF0F5B2FBF0F605EB44
:102450008305322303EB0515B5FBF1F5B6FBF1F669
:1024600005F0F00505EB0615B2FBF0F6B2FBF0F057
:10247000B0FBF1F06FF01802504306EB800003EB65
:102480000010B0FBF1F0216800F00F0028448860D4
:1024900070BD00000038014038B58162828500259A
:1024A000134604460564222084F83E00A26B1348BC
:1024B0009062A26B1248D062A26B12481063A06BAC
:1024C0000A4645632168A06B091DFEF749F820689C
:1024D00001684168009184F83C50C16841F4807102
:1024E000C1602068416941F0010141612068416992
:1024F00041F040014161002038BD00007522000814
:10250000CF2200082B2200082DE9F04198461746FB
:102510000E460446069D1DE0681C1BD02DB1FEF73B
:102520006BF9A0EB0800A84214D92068C16821F417
:10253000D071C1602068416921F001014161202012
:1025400084F83D0084F83E00002084F83C0003201D
:10255000BDE8F0812068006836EA000004D0002061
:10256000B842D9D00020F3E70120F9E70148FFF78E
:102570006DB800009C010020FEE700000A460146FD
:102580004FF47A730148FFF717BA00009C0100204E
:102590000907090E002804DB00F1E02080F8001490
:1025A000704700F00F0000F1E02080F8141D704724
:1025B0002DE9F041C1F30A52A2F2FF362F4A304B07
:1025C0000D460446142E2FDA002E12DA00F078F9A8
:1025D0000022134600F036FD4CD2002DA4BF00248B
:1025E000254647DA25F00040204318BF254D41D04D
:1025F00018E0DFF894C02CFA06F705EA070C5CEA4D
:10260000040C08BFBDE8F08100F05AF9002213461F
:1026100000F018FD2ED2002D03DA4FF48010F040A8
:102620000544BD43002425E0332EC8BFBDE8F0813A
:10263000A6F1140C4FF0FF3727FA0CF73C4208BF05
:10264000BDE8F08100F034FD0022134600F0FAFCF2
:1026500010D2002D0DDA142E08BF6D1C09D0C6F162
:102660003400012101FA00F02044A04238BF6D1C63
:102670000446BC4329462046BDE8F0819C7500888D
:102680003CE4377E0000F0BFFFFF0F001CB55C4C40
:1026900000262672FEF7BEF8FFF76EFCFFF7FEF984
:1026A000FFF7AAFAFFF7E0FAFFF772FAFFF7E0F98F
:1026B000FFF710FB5348FEF74DFC00215248FEF790
:1026C00027FF00215148FEF759FD04214F48FEF72E
:1026D00055FD16224E494F48FFF748F94B48006810
:1026E0004662DFF83491002202214846FEF77EF868
:1026F00004F10905A71C4FF00108454914230022E5
:102700001631434800F096F841480B211630FFF788
:10271000EDFBE0790028F0D02878372804D038285D
:1027200032D039285DD069E06878302802D031286D
:1027300012D063E03878322860D138490020C4E9EB
:102740001C012F4884F806803D300078303800F0B6
:1027500028FBC4E91E0151E0387832284ED13049B7
:102760000020C4E91C014FF4005AA6710122514611
:102770002C48FEF73BF8002251462B48FEF736F86E
:1027800021480068466339E06878302836D13878C7
:10279000322833D125490020C4E91C01D4E914238F
:1027A0009346104619460193FFF702FF82460091B7
:1027B00000F0CAFA12495A460B310870DDE90013DD
:1027C000504600F075FC0022194B00F03DFBFFF76E
:1027D000EFFE00F0B9FA0A490B314870FFF7B8FB79
:1027E0000CE06878302809D13878322806D184F88E
:1027F0000880012202214846FDF7F8FFE6717CE7D8
:1028000000000020C40000200C0100205401002022
:10281000A00000209C0100200008014000000840AA
:102820000000104000100140000C01400000144066
:102830000000244030B5002403E0855C0D55921C57
:10284000641C9A42F9DD30BD30B5002403E0855C9C
:102850000D55521C641C9A42F9DD30BD21F0004236
:10286000A2F16052B2F5801F01F0004328BFD2F1FF
:102870007F6C0BD95FEA001C43EAC20242EB507046
:1028800018BF704728BF20F001007047B2F5801FC5
:10289000BCBF184670474FEA410C1CF5001F02D21E
:1028A000084600F010BE70B500F078FB000000890B
:1028B000FFF7F6BF4FF00040A0F580007047000022
:1028C00010B591EA030F48BF83F0004300F1048480
:1028D000841A71EB030C05D2121943EB0C03001B95
:1028E00061EB0C01DFF824E14FEA1154A4EB135C17
:1028F0001EEA430F18BF9EEA445F73D023EA0E031B
:10290000DCF1200E21EA045143F4801332D322FA81
:102910000CFE10EB0E0023FA0CFE41EB0E01CCF185
:10292000200E03FA0EFE10EB0E0051F10001B1F57E
:10293000801FCCF1200E32D201EB045112FA0EF2BC
:10294000BDE8104058BF7047401C38BF5FEA4202E4
:1029500018BF7047002814BF20F0010041F10001AA
:102960004FEA410313F5001F38BF7047A1F1C04182
:1029700000F062BB012A43EB0302ACF1200CDCF156
:102980001F0E32BF4FF0000E23FA0CF310EB0300C2
:1029900041EB0451B4EB115FD0D0A1EB045101F530
:1029A000801149085FEA300001EB04510ED350F169
:1029B000000038BF12FA0EFE08D1BDE81040C9E78A
:1029C000401C38BF5FEA4202CAD1C3E7BDE81040ED
:1029D0004FEA410313F5001F38BF7047A1F1C04112
:1029E00000F02ABB9EEA445F08D011EA5E0FBDE802
:1029F000104004BF01F0004100207047BDE81040C6
:102A000070B500F0CBFA00BF64FBBE3E0000E0FFF3
:102A100002494FF0000000F05BBD00BF0000F87FEE
:102A2000491058BFC1F140415B1058BFC3F140434A
:102A30008B42EFF3008070472DE9C04130B4DFF8DE
:102A4000A0C23CEA111418BF3CEA131400F0EC8059
:102A500081EA03051CEA111444EAD57418BF1CEA84
:102A6000131500F0C780A4EB05044FF0004545EABC
:102A7000C12145EAC32341EA505143EA525304F1CC
:102A80007F74994204F500344FEAC0204FEAC22215
:102A900008BF904200F09C804FEA13650FF2401689
:102AA000765D4FEA134506FB05F7C7F1807706FB15
:102AB00007F74FEAD737A7FB03687642C8F5803897
:102AC000A7FB06CE38BFA8F1010807FB08E64FF0C8
:102AD000000EA6FB028CE6FB03CEDCF1000CCEF16F
:102AE000004E38BFAEF1010EA6FB0C584FF00007A8
:102AF0004FF00005E6FB0E87A1FB08C6A0FB07CE42
:102B000016EB0E0645F10005E1FB076515F1E04EF9
:102B10007EBFA4F580345FEA46066D4116F180075A
:102B200045F100054FEA17274FEA066647EA0567B1
:102B3000A6F1DE46B6F1805F4FEA15251FD938466B
:102B400024F0010C05EBC471BCF1FE6F01EB0C111C
:102B500002D8F0BCBDE8008124425CBF01F5801EB4
:102B60009EEAC47F02D4F0BCBDE80081244238D480
:102B7000F0BCA1F1C041BDE8004100F05DBA4FEAF0
:102B8000D22242EA43524FEAD323A7FB02864FEAFE
:102B9000D02040EA415007FB03661EEA0E0F4FEAC1
:102BA000D12105FB026658BFA6EB0056B6EB0056D6
:102BB0004FEA520E4EEAC37E18EB0E0E56EB530E42
:102BC000BDD518EB02085E417F1C55F10005B6E744
:102BD0004FF480154FF000074FF000064FF000084B
:102BE000ADE7F0BC4FF0000001F1C04101F0004141
:102BF000BDE8008111EA0C1F0CEA131500D00CE0AF
:102C000013EA0C1F00F025804FF00000F0BC81EAB1
:102C1000030101F00041BDE80081F0BCBDE80041C6
:102C200081EA030100F008BAF0BCBDE8004170B5CC
:102C300000F0B4F9097EFC3E00F007B881EA030118
:102C40004FF0000001F00041704781EA030100F0FD
:102C5000F3B9F0BCBDE800414FF0000021497047D6
:102C6000FFFDFBF9F7F5F4F2F0EEEDEBE9E8E6E451
:102C7000E3E1E0DEDDDBDAD8D7D5D4D3D1D0CFCDD8
:102C8000CCCBCAC8C7C6C5C4C2C1C0BFBEBDBCBB11
:102C9000BAB9B8B7B6B5B4B3B2B1B0AFAEADACAB0C
:102CA000AAA9A8A8A7A6A5A4A3A3A2A1A09F9F9EE6
:102CB0009D9C9C9B9A999998979796959594939398
:102CC000929191908F8F8E8E8D8C8C8B8B8A89892F
:102CD00088888787868585848483838282818180B2
:102CE0000000FF070000F87F4FEA41034FEA53530B
:102CF000A3F58063D3F11E03C8BFD3F1210C0CDD13
:102D00004FF0004242EAC12242EA505232FA03FC3A
:102D10008CEAE17CACEBE1707047102BC4BF002063
:102D2000704703F5787CBCF1FF3F04D06FF00042A0
:102D300082EA2100704770B500F030F94992248092
:102D400000207047F2E700004FEA1153A3F58063BB
:102D5000D3F11E03A8BFD3F1200C08DB4FF00042D3
:102D600042EAC12252EA505232FA03F07047094255
:102D70000BD4102BC4BF0020704703F5787CBCF146
:102D8000FF3F05D04FF0FF3070474FF00000704715
:102D900070B500F003F900BF49922480002070470D
:102DA000F0E710F0004248BF4042B0FA80F310FA5A
:102DB00003F10AD0C3F11D0303F580634FEA4150CC
:102DC00002EB035202EBD12170474FF00000704735
:102DD00051EA030C17D41CF5801F58BFBCF5801FA7
:102DE00000F10680994218BF704708BF90427047B3
:102DF00007D711F5801F58BF13F5801F19D49942CA
:102E00007047894270471CF5801F08D5BCF5801FAC
:102E1000F7D58B4218BF704708BF824270474FF406
:102E2000001C1CEB410F38BF1CEB430F01D28B423F
:102E3000704770B500F0B2F8922449004FF000518D
:102E40004FF08053FFF7ECBDDFF848C170B51CEAC6
:102E5000111E1EBF1CEA13159EEA0C0F95EA0C0FFB
:102E600000F06F8081EA030423EA4C134EEAD47E1B
:102E700021EA4C1141F4801143F48013AE44A1FBCC
:102E8000024CA0FB0365AEF17F7E361955EB0C05B5
:102E9000A1FB034C4CF10003A0FB021C16EB0C063B
:102EA000654153F10003094218BF46F0010613F4CF
:102EB000007F0BD14FEA03314FEA0530340341EA7A
:102EC000155140EA16506FF003020AE04FEAC321A1
:102ED0004FEAC520F40241EA555140EA56506FF0DE
:102EE000020202EB2E4201EB025585EACE710AD0B6
:102EF0005FEA440C18BF24F0004450F1000041F197
:102F0000000120EAD47040F2FE7C624500D270BD20
:102F1000A84214BF4FF080444FF04044002E08BF39
:102F20000024BEF1806FA8BFA1F1C041BDE8704090
:102F300080F282804FF0000001F1C04101F00041B9
:102F400070479EEA0C0F0CEA131518BF95EA0C0F98
:102F500006D04FF0000081EA030E0EF0004170BD74
:102F600000F01CF88900013E00F007B800F009B835
:102F70004FEA430C5FEA5C5C08D081EA030100F091
:102F80005BB84FEA410C5FEA5C5CF6D14FF00000A1
:102F9000014970470000FF070000F87F0EF1020EA4
:102FA0002EF0030E5EF8046B364205D4012A43EB83
:102FB000030515F5001F12D8012841EB010C1CF583
:102FC000001F0CD80ED14FEAD17C15F5001F0CEB79
:102FD0004C0C0CF1020C08BF4CEBD37C04E04FF01E
:102FE000080C01E04FEAD37C0CEB4C0526FA05F601
:102FF00006F00706B6F1040C06D20EEB860CBDE80F
:1030000070404CF0010C6047DFE80CF0090B020245
:103010004FF000414FF00000A1F5002170BD1946AE
:103020001046012851EB010418BFD4F5001484BFE9
:10303000002001F0004170BD0808A0F500114FEA22
:103040003101704753EA010C17D41CF5801F58BF9B
:10305000BCF5801F00F106808B4218BF704708BF87
:103060008242704707D713F5801F58BF11F5801FA4
:1030700019D48B4270479B4270471CF5801F08D5BE
:10308000BCF5801FF7D5994218BF704708BF904222
:1030900070474FF4001C1CEB430F38BF1CEB410F73
:1030A00001D2994270470FB40CBC03BCFFF7C1BEFC
:1030B00091EA030F10B581F000413FF509AC83F0B0
:1030C000004300F009B8000010B591EA030F48BFB3
:1030D00083F000433FF5FCAB841A71EB030C07D27D
:1030E00012198CF0004C43EB0C03001B61EB0C013C
:1030F000DFF8A4E14FEA1154A4EB135C1EEA430F7E
:1031000018BF9EEA445F00F0B08023EA6E0352428B
:1031100021EA0451C3EB6E0338BF5B1EDCF1200EC5
:1031200025D322FA0CFE10EB0E0043FA0CFE41EB05
:103130000E01CCF1200E03FA0EFE10EB0E0051F141
:103140000001CCF1200E29D412FA0EF201EB045149
:10315000BDE8104058BF7047401C1CBFB2F1004F83
:10316000704700280CBF491C20F00100704712EB8B
:10317000020E43EB030218BF4FF0010E4EEA42026B
:10318000ACF1200CDCF11E0E54D943FA0CFE10EB0E
:103190000E0051F1FF31CCF11E0ED5D50EF1010E0E
:1031A00012FA0EFE404141EB010101EB445C5FEA83
:1031B0005C5C10D910EBDE7001EB045138BFBEF13E
:1031C000004FBDE8104018BF704700280CBF491CD5
:1031D00020F00100704730D24FEAD42C11F50011D5
:1031E00024F400641BD0B1FA81F20B3AA41AA41E95
:1031F000D2F12003914030FA03F31943904001EBE0
:10320000CC71002C01EB0451BDE81040A8BF704701
:1032100001F1C0414FF0000001F000417047B0FAE9
:1032200080F310FA03F100D110BDE41A173C4805F1
:10323000C90AE4E701EB045110BD491001EB045148
:10324000BDE810404FEA300002E04FF00001704747
:103250004A0008BF0042F8D0B2F5001F28BF7047EF
:1032600001F000414FF0000070479EEA445F07D034
:1032700011EA5E0FBDE8104004BF00210020704736
:10328000BDE8104070B5FFF789FE00BF40DFF63E95
:1032900083F00041104670470000E0FF43004FEA12
:1032A000D30C4FEA3C0C43401FBF40070CF1605168
:1032B00013F0FE4F70471CF0006F03D100200CF09C
:1032C000004170470CF0004343EA507010B540EAEB
:1032D000CC0000F0B2F800BF000000924FEA0001FD
:1032E000FFF7AABE4FF000414FF00000A1F500210A
:1032F00070470000014800F0EBB800BF0000C07F3D
:1033000041000B0ED3F19E0208D950F400034FEA9E
:10331000032323FA02F048BF4042704710B500F083
:103320008CF800BF49922480002070476FF0004263
:1033300082EA2000704700004FF47F0C1CEAD01294
:103340001EBF1CEAD11392EA0C0F93EA0C0F00F097
:10335000478090EA010F48BF42F480724FF0004C62
:103360004CEA00204CEA012102EB0302A0FB01130E
:10337000A2F50002002918BF43F001035B0028BF3B
:103380004FEA330342EB22425FEA132C4CEBC2506C
:103390002EBFBCEB436FB2F57C0F70474FEA036C56
:1033A000BCF1004F08BF20F00100B2F57C0F38BF20
:1033B00070470BD582F0FF0212F5803FC8BF7047FF
:1033C00000F1C040D8BF00F00040704700F5000C8D
:1033D0005FEA4C0C48BF7047B0F1C04000F073B8D2
:1033E00090EA010F0CEAD11348BF42F480726245A3
:1033F00038BF634504D280EA010000F00040704706
:1034000010B500F01AF800BF8900013E00F007B8BF
:1034100000F009B85FEA410C5FEA1C6C08D080EA52
:10342000010000F050B85FEA400C5FEA1C6CF6D176
:103430004FF00040A0F5800070470EF1020E2EF014
:10344000030E5EF8044B244204D44FEA4102B2F169
:103450007F4F11D84FEA4003B3F17F4F0CD80ED104
:103460004FEAD07CB2F17F4F0CEB4C0C0CF1020C0C
:1034700008BF4CEBD17C04E04FF0080C01E04FEAB0
:10348000D17C0CEB4C0324FA03F404F00704B4F1F0
:10349000040C06D20EEB840CBDE810404CF0010C7D
:1034A0006047DFE80CF0070802024FF00040A0F58B
:1034B000800010BD0846420018BFD2F1807288BF5C
:1034C00000F0004010BDFF2141EAD050C005704718
:1034D0000CF00F03092B08BF082000F07F800A2B97
:1034E0000BD0082B18BF704708BF1CF0400F0AD044
:1034F0004FF000004FF0000170471CF0400F18BF64
:103500004FF0004070471CF0100F08D020F07043BF
:1035100000F07F4242EAD3014FEA4370704700F067
:10352000604021F07F4242EA000201F07F4040EA21
:10353000727070474FF0FF0C4CF4E06C1CEA1153B2
:103540001CBF9CEA030C9445C2BFDA4201EB025156
:103550007047002B0DD0BCF1000F0FD0002A01F0F6
:103560000041A4BF41F0E04141F07F614FF0000015
:10357000704701F000414FF00000704750EA0133FE
:103580004FF09B0C18BF4CF0806C7FF441AA704741
:103590004FF0FF0212EAD0521CBF92F0FF038B42A1
:1035A000C2BFD14200EBC1507047002A0AD0002BA5
:1035B0000BD0002900F00040A4BF40F0FE4040F4D2
:1035C0000000704700F00040704743024FF00B0CC2
:1035D00018BF4CF0806C7FF48DAE70471CF4801FD8
:1035E00011D01CF4E02F03D06FEACC3149007047B2
:1035F0004FF04050EFF3008222F0704242EA0002A6
:1036000082F3008870474FF0000070470000000010
:103610000000000001020304060708090000000082
:10362000010203044436000800000020A00000004E
:1036300028010008E4360008A0000020E807000088
:10364000440100080000003031320000000000009A
:10365000000000000000000000000000000000006A
:10366000000000000000000000000000000000005A
:10367000000000000000000000000000000000004A
:10368000000000000000000000000000000000003A
:10369000000000000000000000000000000000002A
:1036A00000B08D400000000000F0894000000000E4
:1036B0000000744000000000000000000000000056
:1036C00000000040000000000000000000000000BA
:1036D00000000000010000001000000000000000D9
:0436E0000024F400CE
:04000005080000ED02
:00000001FF
